:1000000001308A002C290000FF00030E8301A100AB
:100010000A08A0008A010408A2007708A300780853
:10002000A4007908A5007A08A600831383128C30F7
:100030008400801E1D288C1A2E2822088400230884
:10004000F7002408F8002508F9002608FA0020081F
:100050008A00210E8300FF0E7F0E09008A110A120A
:1000600046285B08F8015A02031839285A08F70095
:100070004528F7010830DC00DA0DF70D5B08770240
:100080000318F700F80DDC0B3C2808002E3033076E
:10009000840083138C1E4A281A0880003308D70076
:1000A00001303307D900DA000530DB003120770852
:1000B000B30034083302031D5F285708B3008C12C5
:1000C0008A110A121D284E08AD004D08AC004C08DC
:1000D000AB004B08AA008A110A1264294B30840035
:1000E00083130008031981280630F800F701F70B85
:1000F0007728F80B76287B30F700F70B7D28800BEC
:100100007428080034083302031982282E3034077B
:10011000840083130008CA0001303407CC00A70113
:100120008B1BA7178B134C08DA000530DB0031203E
:10013000A71B8B177708B4004A08F8000800F801DD
:10014000F901F701FA015008031DA9284F08031906
:10015000C3281030D1000310CD0DCE0DF70DFA0DD0
:1001600050087A02031DB6284F087702031CBF28E7
:100170004F08F702031CFA035008FA020314F80DA3
:10018000F90DD10BAB2808002D08CD002C08CC00B0
:100190002B08CB002A08CA004130D100C630D0005D
:1001A0004E30CF006D30CE002030D600D201D301CA
:1001B000D401D5014D08FA004C08F9004B08F800AD
:1001C0004A08F7000310771CF3284E08D2074F089F
:1001D00003184F0FD30750080318500FD4075108C6
:1001E0000318510FD507D50CD40CD30CD20CFA0C34
:1001F000F90CF80CF70CD60BE22839307707AA0077
:100200007808AB00303003183130AB077908AC0008
:10021000003003180130AC077A08AD000030031835
:100220000130AD072C08F7002D08F800F901FA019C
:100230002D08CC002C08CB002D08CE002C08CD00BA
:100240007F30D000FF30CF009F207708F8007A0879
:10025000F9008A110A12B42903081F39830081307A
:1002600083169900A6309800903083129800B3014D
:10027000B4018313A801A90183161F149F141F152D
:100280009F1183138312B501B9015730BA00413071
:10029000BB004B30BC004530BD005530BE00503077
:1002A000BF004E30C0004530C1004F30C200831641
:1002B0008C16C03083128B040108CA00CE01CD0118
:1002C000CC014A08CB0063280430CA00FA30CB00C6
:1002D0006E20CA0B66293408330203199729B50822
:1002E000031D972982207808C6000130CB006E20BC
:1002F0004608533C031D8F294B300C1E7D29990065
:1003000045300C1E8129990059300C1E8529990011
:100310003F300C1E892999000130B5009629013023
:10032000CB006E2058300C1E932999001D2A3408EA
:10033000330203191D2A350B1D2A82207808C600B6
:10034000433039078400831346088000B90A39080E
:10035000033C031D1D2A0930C700C801B901480824
:1003600047020319032AC4287908CB007808CA0079
:100370007908CE007808CD00D0010330CF009F204F
:1003800001307707B7003708480747020318CB2921
:1003900048084702B7000130CB006E2030303707E5
:1003A000CA004A080C1ED22999003230CB006E20B8
:1003B000B601370836020318F4293A30480784009A
:1003C00083130008CA0043303907840083130008F0
:1003D0004A06C90049080C1EEB2999003230CB00AF
:1003E0006E20C80AB60AD929B90AA7018B1BA7171C
:1003F0008B133908DA000330DB003120A71B8B1781
:100400007708B900AF290130CB006E2045300C1EB3
:10041000072A99000130CB006E204F300C1E0E2AA7
:1004200099000130CB006E2054300C1E152A990023
:0E043000B501B9010130CB006E2064296300D4
:02400E00723FFF
:00000001FF
;PIC16F877
;CRC=C995  CREATED="08-Ara-21 00:21"
